:020000040800F2
:100000000050002055150008511500084F15000834
:100010004F1500084F1500084F150008000000009C
:100020000000000000000000000000005115000862
:100030005115000800000000511500088701000854
:100040004F1500084F1500084F1500084F15000800
:100050004F1500084F1500084F1500084F150008F0
:100060004F1500084F1500084F1500084F150008E0
:100070004F1500084F1500084F1500084F150008D0
:100080004F1500084F1500084F1500084F150008C0
:100090004F1500084F1500084F1500084F150008B0
:1000A0004F1500084F1500084F1500084F150008A0
:1000B0004F1500084F1500084F1500084F15000890
:1000C0004F1500084F1500084F1500084F15000880
:1000D0004F1500084F1500084F1500084F15000870
:1000E0004F1500084F1500084F1500084F15000860
:1000F0004F1500084F1500084F1500084F15000850
:100100004F1500084F1500084F1500084F1500083F
:100110004F1500084F1500084F1500084F1500082F
:100120004F1500084F1500084F1500084F1500081F
:100130004F1500084F1500084F1500084F1500080F
:100140004F1500084F1500084F1500084F150008FF
:1001500008B540F2172000F034FD40F2973000F06F
:1001600023FD40F2023000F01FFD4FF4805304489D
:1001700001220221838200F07FFB01F053FA00BFCD
:10018000000801407047074B1B6813B1012B05D0D5
:1001900070474FF48071044800F0ABBB4FF400513E
:1001A0000248F9E748000020000801400010014023
:1001B00038B500F0F3F92D4B04462D4D1860D0B141
:1001C000012846D0D5F80038002000F0CEF92948A3
:1001D00000F08CFC002001F00DFA274801F004FA31
:1001E00001F012FA01F017FA244800F039F900F092
:1001F0008DF9002038BD014640230222204800F03E
:100200003BFB402322460221C5F8103C1C4820231A
:1002100000F032FB20211A4AD5F8083C9C0613D482
:100220002021134BD3F8082C90060FD5D3F8083CA7
:10023000C3F380130E4AD2F800285206C4D5002B0F
:10024000C2D000F093F9BFE79182E5E7C3F8101C34
:10025000E8E7042302460021094800F00DFBD5F829
:10026000083C83F00403C3F38003E3E74800002065
:1002700000000140C81C0008A0BB0D00E41C0008E1
:10028000000C0140014BD3F8010070474C000020E6
:100290002DE9F0411D460B780E4603F07F03212B1C
:1002A00063D14B781468013B052B5ED8DFE803F07F
:1002B000033D5F348E3BDFF820810DB12B882BB9D5
:1002C000062388F800300120BDE8F081CA788B78D9
:1002D000424F43EA0223A7F808342A8821463846C9
:1002E000A7F8002401F04CFC73889BB93B78212BC4
:1002F00010D1FFF7C7FF3A4B1B68834203D8D7F8EA
:100300000C34834204D8012387F810340A23D8E739
:10031000C7F804040323D4E72F4B1A780A2AD2D152
:1003200002221A70CFE72C4BFAE72B4A11780929E1
:1003300017D86FF409730B41DB0712D47088274B71
:1003400081B2A3F80804092001291070BBD9D3F8A1
:100350000434023920462A8803EB812101F010FC85
:10036000B1E70122002100F099FC0020ACE71A4E11
:100370003378062B22D00A2B23D0032B11D0002058
:1003800000232370030AA370337860702371002365
:1003900063710623000CE070124A2B80069B1A60E2
:1003A00091E704233370FFF76DFF0C4A014617787D
:1003B000B2F80824384600F0D6F8E1E70723337096
:1003C000DDE7064B002093F81034DAE7024B1B7888
:1003D000237001232B8076E7040000204C000020CE
:1003E00000000020E903000810B51A4C2378042B04
:1003F00002D0072B2AD010BD00F024FA1649B1F81C
:100400000804C8B9FFF73EFF0A78412A0FD1134A02
:100410001268904203D3D1F80C24904205D30A23EA
:100420002370BDE8104000F019BA00F079F800F030
:1004300015FA05232370DEE7D1F804340238B1F849
:10044000002403EB802000F07BF8F0E7BDE81040CB
:10045000FFF77EBE040000204C00002000000020BA
:1004600030B585B0044600F05DF9402803462348C6
:100470002ED040F2E631A3F108028A422AD939226D
:1004800080F8272080F8282080F829201C4D9B0226
:1004900003F10063C5F80C3400F01CF94FF48063DD
:1004A000029305F21143019304230093154B204658
:1004B00003F1100203F11D0100F094FB7F222121C2
:1004C000114BC5F8140805B0BDE8304000F0A4BCDD
:1004D000782280230A25B2FBF5F105FB1122303288
:1004E00080F82920B1FBF5F205FB121130323031D2
:1004F00080F8281080F82720C8E700BF04000020FB
:100500004C000020F81B00089102000808B5034CBD
:10051000D4F8140800F090FBFAE700BF4C0000206C
:1005200038B5064D20F47F742B6824F00304A342F1
:1005300003D0204600F046F92C6038BD380000207A
:10054000F8B506460F4615460024AC4203D3BDE875
:10055000F840FFF717BE6308A01937F8131000F032
:10056000F7F80234F1E7642070477047094B0A4AF4
:100570001B6819680A40B2F1005F0AD14FF0E0220F
:10058000C3F31400C2F8080D81F30888D3F804F00F
:10059000FEE77047000000200000FE2F70B540F21B
:1005A000023000F001FB40F2033000F0FDFA40F2AF
:1005B000973000F0F9FA4FF40073022200213A4814
:1005C00000F05AF94FF40071374800F08AF94FF4FF
:1005D000806300220221344800F04EF9324C4FF47F
:1005E0008061314800F082F9002841D02E4D4FF44F
:1005F00080612D4800F07AF9044600283ED14FF47E
:100600000071294800F072F90546061E2146264869
:100610004FF4C0634FF0010218BF012600F02CF91F
:100620004FF40071204800F05CF96DBB4FF480710D
:100630001E4800F058F94FF480732A4602211B48E7
:1006400000F01AF94FF4805301220221174800F0FC
:1006500013F94FF48051154800F045F940F2172086
:1006600000F0AFFA40F2973000F09EFA304670BDCD
:100670004FF48061204600F034F9B0E74FF4806118
:10068000284600F030F9B2E74FF4417000F08CFAE0
:100690004FF40051064800F024F94FF4005322466D
:1006A00002210348CCE700BF000C014000080140D4
:1006B0000010014008B5022300211A46044800F04A
:1006C000DBF84FF0E0230022C3F8082D08BD00BF7F
:1006D00000080140104B10B5D3F8E827D3F8EC1709
:1006E000D3F8F0370A4400210C481A4422FA01F3E7
:1006F00003F00F0303F13004392C88BF373301F1C5
:10070000040194BF04700370202900F1FF30EDD183
:100710000022034B1A7210BD00F0FF1F6B0800206F
:1007200064080020014BB3F8E007704700F0FF1F9A
:1007300038B5064DEC68FFF7F5FFB0F5007F84BFD4
:10074000EB6C1C4304F0350038BD00BF00200240B4
:1007500038B504460D4600F089F8FFF7E3FFB0F521
:10076000007F164B14D9164A944211D91A6D42F0E3
:1007700001021A65258000F079F8FFF7D3FFB0F584
:10078000007F14D90D4A136D23F00103136538BDA2
:100790001A6942F001021A61258000F067F8FFF73C
:1007A000C1FFB0F5007F02D9054B9C42E9E7034A3F
:1007B000136923F001031361E9E700BF0020024041
:1007C000FFFF070810B5044600F050F8FFF7AAFF36
:1007D000B0F5007F194B18D9194A944215D91A6DF2
:1007E00042F002021A655C651A6D42F040021A6519
:1007F00000F03CF8FFF796FFB0F5007F18D90F4ADC
:10080000136D23F00203136510BD1A6942F0020252
:100810001A615C611A6942F040021A6100F026F820
:10082000FFF780FFB0F5007F02D9054B9C42E5E75A
:10083000024A136923F002031361E5E70020024036
:10084000FFFF0708034B044A5A6002F188325A60DE
:10085000704700BF0020024023016745024A136928
:1008600043F08003136170470020024008B5FFF792
:100870005FFFC307FBD408BD2DE9F04300264FF00E
:100880000F089C46036847684CFA06F414F0010F01
:1008900006F1010E1DD0072E94BF9946B946B4B299
:1008A0004FEA84048ABF203CA4B2A4B208FA04F53B
:1008B00029EA0509A51C02FA05F501FA04F42C43FE
:1008C000072E44EA090405D8234676463C462746C7
:1008D000DAE73C467646102EF9D103604460BDE865
:1008E000F083016170470904016170478068084026
:1008F0007047C36801EA030221EA030141EA0241A9
:1009000001617047062824D8DFE800F004090E13BF
:10091000181D2000104B1868C0F3406070470E4B44
:100920001868C0F3C06070470B4B1868C0F3407084
:100930007047094B1868C0F340407047064B186871
:10094000C0F340007047044B186AF9E7024B586A3D
:10095000F6E70020704700BF00100240024608B5CD
:100960001046FFF7CFFF0028FAD008BD06282AD886
:10097000DFE800F0040A0F14191E2400124A13685D
:1009800043F08073136070470F4A136843F080632D
:10099000F8E70D4A136843F08053F3E70A4A1368F7
:1009A00043F48033EEE7084A136843F00103E9E7B4
:1009B000054A136A43F0010313627047024A536AFF
:1009C00043F001035362704700100240034A53682A
:1009D00023F0030303435360704700BF001002403D
:1009E000034A536823F4701343EA8043536070470B
:1009F00000100240034AD36A23F4706343EA0023E1
:100A0000D362704700100240034AD36A23F4704354
:100A100043EA0033D362704700100240034A536830
:100A200023F4803343EA00435360704700100240D0
:100A3000034A536823F4003343EA4043536070474A
:100A400000100240034A536823F4404343EA8033D2
:100A50005360704700100240034A536823F4605308
:100A600043EAC0235360704700100240034A5368B2
:100A700023F4E06343EA0023536070470010024010
:100A8000034A536823F0F00343EA001353607047AE
:100A900000100240044B5A6818B142F480025A60B8
:100AA000704722F48002FAE700100240034AD36A3A
:100AB00023F00F030343D362704700BF00100240CE
:100AC000034AD36A23F0F00343EA0013D36270476A
:100AD00000100240044BDA6A18B142F48032DA6244
:100AE000704722F48032FAE70010024010B5044645
:100AF0004378012B0CBF03200420FFF737FFFFF7DB
:100B00002DFFA078FFF7BCFFE078FFF7AFFF20795B
:100B1000FFF7A2FF6079FFF795FF207BFFF7BAFF91
:100B2000A07900F087FD2078FFF75AFF6078FFF783
:100B300075FFE07901282DD9FFF7B8FF207A08B1B9
:100B4000FFF7C8FF607A08B1FFF7BAFFA07A30B1AB
:100B5000FFF750FF0120FFF709FFFFF7FFFEE07AE4
:100B600030B1FFF751FF0220FFF700FFFFF7F6FE5D
:100B70000020FFF7FBFEFFF7F1FE0220FFF726FF44
:100B80002269064B1A606269054B1A60A269054B1F
:100B90001A6010BDFFF74CFFD0E700BF3C000020FB
:100BA00044000020400000200122430903F180435B
:100BB00003F50433196800F01F0082400A431A60ED
:100BC00070470122430903F1804303F50433196898
:100BD00000F01F00824011431960196821EA0202E7
:100BE0001A6070472DE9F0411E4603681746054616
:100BF00088469847069B079AC36000230261BDF8A8
:100C00002020C0E900878282084AC0E938330267A1
:100C1000074AC0E93233C266064AC0E93433C0F835
:100C2000DC5086608266BDE8F08100BF450E00089A
:100C3000A50E0008270F0008D0F8DC305B6A1847C3
:100C400010B4D0F8DC40A468A44610BC604737B5A7
:100C5000002504460368C582DB792A4629460095AB
:100C6000FFF7EEFFD4F8DC3029465B682046984752
:100C7000E3691BB103B0BDE83040184703B030BD95
:100C800010B4D0F8DC40E469A44610BC604710B44E
:100C9000D0F8DC40246AA44610BC6047D0F8DC30B1
:100CA0001B691847D0F8DC309B691847D0F8DC3056
:100CB0005B69184710B503680446D979838F826B46
:100CC00099420FD20B460021FFF7DAFF022384F886
:100CD0002C302368DA79A36B1344A363A38F9B1A88
:100CE000A38710BD0021FFF7CBFF94F84430C3F178
:100CF000030384F82C30002384F84430A387A363D3
:100D0000EFE72DE9F74F04460E46054600F1200AAD
:100D100000F1380800F13C0B00F14009AF6C47B915
:100D20005B4642463146204603B0BDE8F04F00F036
:100D3000BFBB317895F84D2095F84C3011408B426F
:100D400003D008355545E9D1EAE75B4642463146CE
:100D50002046CDF80090B8470128F2D803B0BDE88E
:100D6000F08F10B5012200210446FFF797FF002302
:100D700084F82C3010BD70B50368828FC48EDB7987
:100D8000A41A9C42A8BF1C46816BA6B20A443346F3
:100D900000210546FFF77BFF864205D02846FFF776
:100DA000E0FF4FF0FF3070BDAB8FA0B21E44AE87A6
:100DB000F9E738B50369044683638B79CA790D4630
:100DC00043EA02238387FFF79CFF00B3EB88ABB1B4
:100DD000A28F21689342C9790ED932B1B2FBF1F3E7
:100DE00001FB1322B2FA82F25209204684F8442011
:100DF000BDE83840FFF75EBF0022F6E71A46194605
:100E00002046FFF73DFF042384F82C3038BD2046F0
:100E1000BDE83840FFF7A5BF70B50446002500F1D6
:100E2000480656F8350028B10135042DF9D14FF0A8
:100E3000FF3070BD04EBC50484F84C1084F84D20DD
:100E4000A364F6E770B5002504460122294605642F
:100E500000F13006FFF72AFFE28E2AB9314620461C
:100E6000BDE87040FFF7A5BF94F93030002BF5DBEB
:100E7000A38A934204D22046BDE87040FFF771BFB9
:100E80002369A587A36323682946DB79204693421B
:100E90002CBF0623052384F82C302A46BDE8704079
:100EA000FFF704BF10B590F82C300446062B12D083
:100EB000072B27D0052B21D1FFF75DFF002809DB89
:100EC000A28FE38E9B1A2268D279934202DC06231A
:100ED00084F82C3010BDFFF74EFF0028FADB2046C7
:100EE00004F13001FFF70DFF38B1002320461A4608
:100EF0001946FFF7C5FE0423EAE72046BDE8104087
:100F0000FFF72FBF00231A461946FFF7C0FE002344
:100F100084F82C30236C1BB1204604F13001984733
:100F200000232364D6E710B590F82C300446032B39
:100F300007D0042B0ED0022B23D1BDE81040FFF7C1
:100F4000B9BE0723002280F82C301146BDE81040BE
:100F5000FFF7ACBE036C13B100F13001984794F871
:100F6000303053B994F83130052B06D1618ED4F866
:100F7000DC3020465B68C9B29847002384F82C30E7
:100F800010BDBDE81040FFF7ECBE08B50B7873B993
:100F900049887F2909D8D0F8DC30C9B2817593F827
:100FA00030200AB15B6898470123184608BD00232A
:100FB000FBE7F8B50D4649880446E1B103680D2604
:100FC000587C0023984201D80020F8BD626806FBD7
:100FD0000322577901338F42F4D1E3750023184679
:100FE0001179994208D9D2F809101E01715801B13E
:100FF00008700133F4E7C175D4F8DC302046DB68B3
:101000009847D4F8C8300BB90120DEE7002304F17B
:10101000C406A3642365A365236604F1D40756F8C8
:10102000043F13B1204669889847BE42F7D1EBE7E9
:101030001988012984BF01211980C37D11682BB152
:1010400042680D2000FB032313F8083C01200B70BD
:10105000704770B51C460D23C27D5A4343680D3A54
:1010600013441D798A88954219D9D3F8095016017D
:1010700005EB02124B8812799A4210D9AA5952B143
:101080001370D0F8D83013B14A8889889847002364
:101090000120238070BD002BF3D01046FAE700201A
:1010A000F8E730B50D25C47D40686C430D3C204405
:1010B0008D880479A5420CD201241C808B88D0F83D
:1010C00009001B011B5803B11B7801201268137023
:1010D00030BD0020FCE719880120022984BF0221CD
:1010E0001980002311680B7012685370704710B597
:1010F00014461A88022A84BF02221A808988C9B23B
:10110000FFF7D0FD003818BF0120002223681870B7
:10111000236801205A7010BD08B589880122C9B220
:10112000FFF7BCFD012008BD08B589880022C9B2BF
:10113000FFF7B4FD012008BD2DE9F04F1F464B8895
:1011400016461A0A022A054689B011D0032A00F071
:10115000F080012A40F0448103683A8833601B78AC
:10116000934228BF13463B80012009B0BDE8F08FB1
:101170000269DBB2326002920D2202FB03F8D0F862
:1011800004903C8819F8085009EB0803A54228BFD1
:10119000254619462A460298049300F0F1FC029B6A
:1011A000641B5E19002319F80880A4B20193049B04
:1011B0001A79BDF804309A4204D8029BA3F8028041
:1011C0003D80D1E7019B019A1B010593049BD3F855
:1011D000093003EB0213D3F808A0BAF1000F15D0C1
:1011E0009AF800903046A14528BFA14651464A468C
:1011F00000F0C6FC9AF80030A4EB09044E444344C6
:10120000A944A4B21FFA89F51FFA83F800230393B7
:10121000049B059AD3F8093013441979BDF80C20C2
:10122000914202D8019B0133C0E71521039AD3F8FC
:101230000CA001FB02F91AF809B00AEB0903A34557
:1012400028BFA34619465A463046009300F098FC42
:101250001AF80930A4EB0B0443441FFA83F8009BEF
:101260005E44D3F80D10AB44A4B21FFA8BF5B9B1AC
:10127000D3F811A03046A245A8BFA2461FFA8AF9AA
:101280004A4600F07DFC009BA4EB0904D3F8113022
:101290004E444344A944A4B21FFA89F51FFA83F8C7
:1012A0004FF00009009B1A791FFA89F39A4202D87D
:1012B000039B0133ABE7009BC9EB091BD3F8093053
:1012C000304613F80B2003EB0B0AA24228BF22463C
:1012D00051460793069200F053FC079B069A13F8B9
:1012E0000B30DAF80710A41A164443442A44A4B277
:1012F00095B21FFA83F8C9B1DAF80B203046A24242
:10130000A8BF22461FFA82FB5A46CDF818B000F05B
:1013100037FCDAF80B30069AA4EB0B044344AB44D9
:101320001644A4B21FFA8BF51FFA83F809F10109DC
:10133000B8E713F0FF0304690DD10923A370042358
:10134000E37023703B88042B28BF04233B800323D6
:101350006370346008E7D0F8E0209A4219D1D0F8E1
:10136000E450284600F01AFC01304000C0B2207062
:101370003B88834228BF03463B8000233A885208BB
:10138000013A9A42E3DDE95C04EB43025180013308
:10139000F4E78068013B00283FF4E7AEEA689A4230
:1013A0001EDD40F209428988914219D150F823503C
:1013B000284600F0F3FB01304000C0B220703B88AB
:1013C000834228BF03463B8000233A885208013AF3
:1013D0009A42BCDDE95C04EB430251800133F4E73F
:1013E0000020C2E619880120022984BF0221198049
:1013F000002311680B7012685370704730B44C783A
:10140000092C12D8DFE804F005111111110D0F118C
:10141000090B074CA44630BC6047064CFAE7064C63
:10142000F8E7064CF6E7064CF4E7002030BC7047BE
:10143000D710000831100008B30F00088B0F000808
:101440003911000810B44C780A2C06D00B2C06D0A9
:101450003CB9054CA44610BC6047044CFAE7044C68
:10146000F8E7002010BC7047E5130008A31000083F
:101470005310000810B44C78012C04D0032C07D072
:101480001CB9084C08E04C884CB1002010BC7047D7
:101490004C88002CF9D1044CA44610BC6047034C86
:1014A000FAE700BFEF100008191100082911000821
:1014B00010B40C7814F0600F0FD104F01F04012C4D
:1014C00005D0022C06D044B910BCFFF797BF10BC62
:1014D000FFF7B8BF10BCFFF7CDBF002010BC7047AE
:1014E00008B540F29730FFF75FFB0022064B074834
:1014F000C3F8402CC3F8502CC3F8442C4FF41C42C2
:10150000C3F8402C08BD00BF005000407008002008
:101510000132521001EB4202914200D1704731F882
:10152000023B40F8043BF7E7034670B502F00104C4
:10153000520801EB8205A94204D114B10B7800F8DE
:10154000123070BD31F8046B23F8026BF3E7FEE74D
:101550007047000038B51A4A1A4B1B498B421AD300
:1015600000211A4A93421BD34FF0E022D2F8143DD7
:10157000174C43F40073174DC2F8143DAC4212D31C
:10158000154C164DAC4212D3FEF712FE144C154DFD
:10159000AC4210D338BD52F8040B43F8040BDDE71E
:1015A00043F8041BDEE754F8043B9847E6E754F899
:1015B000043B9847E6E754F8043B9847E8E700BF48
:1015C000181D000800000020480000207C090020B1
:1015D000181D0008181D0008181D0008181D000817
:1015E000181D0008181D00084FF0E02320F07F4070
:1015F000586170474FF0E022136900F0040023F0B7
:1016000004030343136170474FF0E022136943F072
:101610000203136170474FF0E022136943F00103A6
:10162000136170474FF0E023014AC3F80C2DFEE729
:101630000400FA05034A136823F007030343136009
:10164000704700BF00200240024B41F08001C3F808
:101650004C1C7047005000403E2A14D9013AC2F396
:10166000441302F4787202F1200043F02003094A87
:101670009B02D2F8502C9BB292B202EBC101064AF7
:101680004900535070470132530822F0010290B2D2
:10169000EDE700BF005000400C6000402DE9F34131
:1016A00006464FF0C060444C01F07F08CDE9004091
:1016B0004FEA880404F1804404F5B844206802AD80
:1016C00020F4E04020F07F0040EA080080B2206073
:1016D000206805EB420232F8082C20F4EC4020F0A0
:1016E0007000104349B280B20029089F20604FEA81
:1016F000C8022ADBB8F1000F27D03049358BD1F86A
:10170000501C304689B20A442D4952008D501A4669
:101710004146FFF7A1FF002F47D12368054423F47A
:10172000415323F030031B041B0C2360236823F474
:10173000804323F070039BB283F4405343F400438F
:1017400043F08003236035832CE01C48B6F818C0B2
:10175000D0F8500C80B21044400000F1804000F5F9
:10176000C040C0F800C01FB10C2000FB08608766B5
:1017700020689C4420F4E04020F030000004000C7D
:1017800020602568002925F4E04525F04005ADB22C
:1017900085F0200545F4004545F080052560A6F854
:1017A00018C0AADA02B0BDE8F0810C2303FB086878
:1017B000C8F86C70B1E700BF0002000400500040A0
:1017C0000860004048F2800170B50B4A0B4E0C4D8A
:1017D0000C4C136833400B439BB2136013682B40CF
:1017E0000B439BB242F8043BA242F2D10368DB797F
:1017F00020335B00038370BD045C0040BF8FFFFF9C
:101800008FBFFFFF205C004010B500293ED1334C54
:1018100048F28000D4F8003C23F4E04323F0400376
:101820009BB202BB83F020031843C4F8000C4FF4B2
:101830004052890001F1804101F5B8410B6823F461
:10184000415323F030031B041B0C0B600B6823F483
:10185000804323F070039BB2534043F4004343F0B2
:1018600080030B6030E083F010031843C4F8000CD1
:10187000890001F1804101F5B8410B684FF48052B5
:1018800023F4804323F070039BB2E5E70B0621D5D8
:1018900001F07F039B0003F1804303F5B84319680F
:1018A00048F2800021F4E04121F0400189B262B9A0
:1018B00081F02001084318601A6822F4E04222F007
:1018C00030021204120C1A6010BD81F0100108439E
:1018D0001860F9E7002ACBD1A9E700BF005000400B
:1018E0000B060ED501F07F01890001F1804101F561
:1018F000B841086800F03000102814BF0020012013
:101900007047890001F1804101F5B841086800F491
:101910004050B0F5805FF0E70B0612D40B4B0C483B
:101920005A54890001F1804101F5B8410B68034028
:101930009BB23AB183F4005343F4004343F0800375
:101940000B60704783F44053F6E700BF7409002032
:101950008FBFFFFF08462DE9F0411E4600F07F03D0
:101960009D0005F1804505F5B84511462A6802F04D
:101970003002302A2CD0DFF85C803246D8F8504C48
:10198000DF00A4B204EBC304640004F1804404F556
:10199000C0442088400000F1804000F5C040FFF7BF
:1019A000B7FDD8F8503C9BB21F440B4B7F00DE5173
:1019B000296821F4E04121F0400189B281F0300131
:1019C00041F4004141F0800129603046BDE8F081DA
:1019D0000026FAE70050004004600040F8B58D0092
:1019E00005F1804505F5B8451C462B680E4603F405
:1019F0004053B3F5405F10463FD0214FCA00D7F89F
:101A0000503C9BB203EBC1031E495B00CB58C3F3B0
:101A10000903A34207DAD7F8503C9BB213445B009A
:101A2000CC58C4F30904164BD3F8503C9BB21A446B
:101A3000154B5200995A2246490001F1804101F5A7
:101A4000C041FFF771FD2B6823F0F0031B051B0D50
:101A500043F080032B600D4B9B5D63B9296821F433
:101A6000804121F0700189B281F4405141F400417C
:101A700041F0800129602046F8BD0024FBE700BF4B
:101A8000005000400C6000400860004074090020D5
:101A9000F8B53A4B0446D3F8446C770509D54FF6B0
:101AA000FF32C3F8442C40230383BDE8F840FFF71E
:101AB000CEB835041ED506F00F07BD0005F18045F0
:101AC00005F5B84516F010022B683CD0190542D533
:101AD00000F1300208233946FFF780FF022207EBAE
:101AE000470313441A3354F82330002B35D03946BA
:101AF00020469847320507D54FF2FF721F4BC3F8B7
:101B0000442C236A03B19847F30407D54EF6FF72BD
:101B10001A4BC3F8442C636A03B1984716F4007F4C
:101B2000A36A164D05D04FF6FF52C5F8442CEBB111
:101B30009847A36AD3B1114AD2F8403C43F40073EA
:101B4000C2F8403CF8BD23F0F0031B051B0D43F425
:101B500000432B60C3E70122C1E72B6823F0F003A9
:101B60001B051B0D43F080032B60C3E7D5F8403CF9
:101B700023F40073C5F8403CE4E700BF0050004088
:101B80000A44914200F1FF3300D1704710B511F8BB
:101B9000014B914203F8014FF9D110BD034613F8F0
:101BA000012B002AFBD1181A01387047426C61637F
:101BB0006B204D6167696320446562756700426C04
:101BC00061636B204D616769632050726F626520AD
:101BD000444655202853574C494E4B292076312EE8
:101BE000392E302D35352D673563663064643237D4
:101BF0002D64697274790000AC1B0008BE1B0008DC
:101C0000640800200500002009020000010100C056
:101C100032281C00081201000200000040501D3153
:101C2000600001010203010000000000010000004B
:101C300000000000381C00080904000000FE01023A
:101C400004000000004D1C00080900000009210BE1
:101C5000FF0000041A010000040100040002020059
:101C6000000000000000000000A24A04005125020C
:101C700000A24A0407010004000202010000000063
:101C80000000000000A24A040051250200A24A04FC
:101C90000701000400020204010406000000000025
:101CA00000A24A040051250200A24A0401010000DA
:101CB00000000000000000000000000000366E017F
:101CC00000366E0100366E010701000400030200B9
:101CD000000000000000000000A24A04005125029C
:101CE00000A24A04E1140008491600089D160008E5
:101CF000C51700080918000819190008E11800089C
:101D000055190008DD190008911A000800000000AC
:081D10000000000000000000CB
:101D1800002000080240496E7465726E616C2046AE
:101D28006C6173682020202F3078303830303030A4
:101D380030302F382A3030314B612C3030302A3057
:101D480030314B6700000000FFFFFFFF00127A00F0
:081D580000127A0000127A006B
:040000050800155585
:00000001FF
